:020000040800F2
:1000000080670020B92E0008C12E0008C32E00080A
:10001000C52E0008C72E0008C92E000800000000E9
:10002000000000000000000000000000CB2E0008CF
:10003000CD2E000800000000CF2E00081712000887
:10004000D32E0008D32E0008D32E0008D32E00088C
:10005000D32E0008D32E0008D32E0008D32E00087C
:10006000D32E0008D32E0008D32E0008D32E00086C
:10007000D32E0008D32E0008D32E0008D32E00085C
:10008000D32E0008D32E0008D32E0008D32E00084C
:10009000D32E0008D32E0008D32E0008D32E00083C
:1000A000D32E000839120008D32E0008D32E0008E2
:1000B00075120008D32E0008D32E0008D32E000896
:1000C000D32E0008D32E0008D32E0008D32E00080C
:1000D000D32E0008D32E0008BF06000873100008B6
:1000E000D32E0008D32E0008D32E0008D32E0008EC
:1000F000D32E0008D32E0008D32E0008D32E0008DC
:10010000D32E0008D32E0008D32E0008D32E0008CB
:10011000D32E0008D32E0008D32E0008D32E0008BB
:10012000D32E0008D32E0008D32E0008D32E0008AB
:10013000D32E0008D32E0008D32E0008D32E00089B
:10014000D32E0008D32E0008D32E0008D32E00088B
:10015000D32E0008D32E0008D32E0008D32E00087B
:10016000D32E0008D32E0008D32E0008D32E00086B
:10017000D32E0008D32E0008D32E0008D32E00085B
:10018000D32E0008D32E0008DFF810D00AF0B2FCFE
:100190000AF012F900480047790300088067002040
:1001A00070B504460D4600BF4021054802F01CFD15
:1001B0000028F9D0E1B2024802F066FC204670BD8A
:1001C0000044004030B58BB004460D4601210802C2
:1001D00001F0E2FB0121202001F0ABFB09221146D6
:1001E000B24801F0E4F94FF40070099002208DF854
:1001F000280003208DF8290000208DF82A00012016
:100200008DF82B0009A9A94801F046F9A8B2ADF86C
:1002100018000020ADF81A000794ADF8200006A9D8
:10022000A34801F072FD6020ADF804000120ADF894
:1002300006000220ADF8100001A99D4801F0FAFD6A
:1002400008219B4801F083FF0121994801F0C8FD76
:100250000121974801F0E2FD0BB030BD00B58BB035
:100260000121084601F065FB0121082001F094FB03
:100270000121080401F0A1FB0720099002208DF85C
:10028000280003208DF8290009A98A4801F004F903
:1002900002220021874801F08AF9022201218548C3
:1002A00001F085F903220221824801F080F95320F0
:1002B000ADF818000020ADF81A0040F6C410079001
:1002C0000020ADF8200006A97B4801F01EFD40F299
:1002D0008F60ADF818000020ADF81A004FF4FA60F6
:1002E00007900020ADF8200006A9744801F00DFD2C
:1002F0007020ADF804000120ADF806000020ADF834
:1003000008004FF47A7003900220ADF8100000202E
:10031000ADF81200ADF814004FF48070ADF816007F
:1003200001A9654801F086FD01A9634801F0BBFD04
:100330000020039001A9614801F07CFD08215E487E
:1003400001F005FF08215C4801F00AFF08215B4825
:1003500001F0FDFE0121584801F042FD01215748FE
:1003600001F03EFD0121544801F058FD01215348A0
:1003700001F054FD0BB000BD0EB500F095FE1E203F
:1003800000F03AFFFFF76AFF40F2473140F2CF70CA
:10039000FFF718FF4FF47A7045494863012463E082
:1003A0004CB3002400231A4645494648006804F02F
:1003B000C1F9322000F020FF434A44494148006817
:1003C00004F0C9FD002211463E48006804F0A4FB79
:1003D0004FF47A7000F010FF00F088F8322000F03F
:1003E0000BFF3B4800680068C168394800688847CF
:1003F0004FF4FA7140183749684609F00EFD364847
:100400009DE80E000EC00C38008958B93248B0F98A
:100410000A006FF48E51884204D14FF47A70244957
:10042000486303E04FF47A70214948632A48B0F9E1
:10043000080010F5FA5F0BD12748B0F90A006FF4F5
:100440008E51884204D14FF47A701B4934310860D0
:100450004FF47A7000F0D0FE4FF47A7000F0CCFECA
:100460004FF47A7000F0C8FE9AE738B504200AF01D
:100470000DFE04461949016000BF19490160144886
:1004800004600020034602460090114801681548A8
:1004900002F09AFD0B480168134806F005F8094878
:1004A00001680C4809F02CFC38BD00000014024023
:1004B0000020004000000240000C004000400140CD
:1004C000D1000020040000203C1F0020530D000834
:1004D000000000203C1E0020801E002048DB000899
:1004E000E8DA0008180900200800002000B58DB0E7
:1004F000074801900748039007480C9000231A46CC
:1005000001A90648006802F0EDFF0DB000BD000033
:10051000AED70F00000A01035000002004000020A5
:1005200010B500220121114809F0F3FB40221049C7
:10053000104809F03FFE10BD10B5002201210B4804
:1005400009F0E7FB4FF480600A4908604860886062
:10055000C860086148618861C86108624862886251
:10056000C862086348638863C86310BD3C1E0020EE
:10057000910000201000002000B52DED068BEDB09D
:10058000B0EE409AF0EE609AB0EE418AF0EE618AE9
:10059000324A19EE100A19EE901A10615161304872
:1005A0000168684604F094FCCC2269463AA809F038
:1005B00001FE1C224AA933A809F0FCFD2748DDE909
:1005C00033120160426026480168684604F080FCEE
:1005D000CC2269463AA809F0EDFD1C224AA933A8AD
:1005E00009F0E8FD1D48DDE935128160C26018227E
:1005F000014667A809F0DEFD9DED6B2B9DED691BA3
:100600009DED670B174807F088FCB0EE480A1548C7
:1006100007F0A3FC18EE900A0AF004F841EC1A0B5C
:10062000B0EE4A0AF0EE6A0A0E4807F08DFC00228E
:1006300011460C4807F083F86DB0BDEC068B00BD89
:1006400010B500221146074807F0EDF810BD10B5AF
:1006500003480168034806F0CAFF10BDC41E00200D
:10066000040000208C1E002000F07F0200EE102A03
:10067000B8EEC00AF0EE400A00EE101AB8EE400ADA
:10068000B0EE401A00F0800262B1DFEDF21AB0EE77
:10069000410A00EEA10AF1EE401A9FEDEF2A81EE29
:1006A000820A7047DFEDEB1AB0EE410A00EEA10AB4
:1006B0009FEDE92AC0EE021AB0EE610AF1E710B52B
:1006C0002021E64802F090FA01282AD1E34802F0FE
:1006D000DFF9C4B2E248406A48B9FA2C20D1E048B8
:1006E000416A001D44540120DD49486218E0FE2C97
:1006F0000DD1DB48416A001D4454001F406A401C74
:10070000D7498862002048620120086008E0D44888
:10071000416A001D4454001F406A401CD049486291
:1007200000BF10BDF0B52DED028BE9B004460D46BB
:1007300016462068012802D10020206003E069B03D
:10074000BDEC028BF0BD2079FA2802D16079FB283C
:1007500000D0F4E7A0790A287DD2DFE800F0050B8D
:100760000E1A26DFF1F0EFEE00221146284604F0C3
:10077000D3F964E1FFF7BAFE61E1E07908B1012045
:1007800000E00020014600231A46284603F087FDBA
:1007900055E1E07908B1012000E000200146002386
:1007A0001A46304606F03FF849E1E079012871D158
:1007B000207AAC490870A17A607AFFF755FF10EEF5
:1007C000100AA849C1F80100217BE07AFFF74CFF2D
:1007D00010EE100AA349C1F80500A17B607BFFF76A
:1007E00043FF10EE100A9F49C1F80900217CE07B0D
:1007F000FFF73AFF10EE100A9A49C1F80D00304693
:1008000006F036F90121880701F008FBA17A607A29
:10081000FFF72AFF10EE107A384609F003FF41EC8B
:10082000180B53EC182B90A00AF044FC217BE07AC3
:10083000FFF71AFF10EE107A384609F0F3FE41EC8C
:10084000180B53EC182B8CA00AF034FCA17B607BB6
:10085000FFF70AFF00E0F1E010EE107A384609F0E9
:10086000E1FE41EC180B53EC182B87A00AF022FC98
:10087000217CE07BFFF7F8FE10EE107A384609F095
:10088000D1FE41EC180B53EC182B82A00AF012FC9D
:1008900043E0FFE7E07902283FD1A17A607AFFF7D1
:1008A000E3FE10EE107A384609F0BCFE41EC180B5E
:1008B00053EC182B6CA00AF0FDFB217BE07AFFF7CC
:1008C000D3FE10EE107A384609F0ACFE41EC180B5E
:1008D00053EC182B68A00AF0EDFBA17B607BFFF7BF
:1008E000C3FE10EE107A384609F09CFE41EC180B5E
:1008F00053EC182B64A00AF0DDFB217CE07BFFF7B2
:10090000B3FE10EE107A384609F08CFE41EC180B5D
:1009100053EC182B5FA00AF0CDFB90E0E0790128A2
:1009200004D002280DD0032819D111E000231A4663
:100930000121304605F01FFE11E074E04DE02DE08E
:100940000FE000231A460421304605F014FE06E0AD
:1009500000231A460621304605F00DFE00BF00BFF9
:100960006DE0E07930B9FFF7E7FD00214C4801F078
:1009700055FA12E0E079022806D1FFF7D1FD0121F6
:10098000474801F04BFA08E0E079012805D1FFF76C
:10099000D3FD0121424801F041FA50E0E079C8B9A5
:1009A000207A09F032FE41EC180BA07A00EE100A12
:1009B000B8EE400AF0EE401A607A00EE100AB8EE87
:1009C000400AB0EE401AB0EE480AF0EE680AFFF7AF
:1009D000D3FD01E0FFF734FE31E02946684604F01C
:1009E00077FACC22694636A809F0E4FBDDF8DA0094
:1009F0003390DDF8DE003490BDF8E200ADF8D400AD
:100A000028A033990AF056FB294603A804F060FA9F
:100A1000CC2203A936A809F0CDFB9DF89D1126A094
:100A20000AF048FB0BE0E079012802D100F0F1F96F
:100A300003E0E07908B900F016FA00E000BF00BF5B
:100A400000BF7CE60648002101604162816200BF70
:100A500070470000000080430000C842004400408E
:100A6000101F0020281E0020726F6C6C5F6F725F79
:100A700078203D25660A000070697463685F6F72B4
:100A80005F79203D25660A007468725F7A203D25F3
:100A9000660A0000796177203D25660A0A00000099
:100AA0000000014054696D655374616D7020697375
:100AB0002025640D0A00000042617474657279207B
:100AC00063617061636974792072656D61696E73C9
:100AD0002025642070657263656E740D0A00000045
:100AE0002DE9F04107460C461646254614B900206C
:100AF000BDE8F0810BE000BF40210A4802F074F825
:100B00000028F9D015F8011B064801F0BDFF301E82
:100B1000A6F10106EFD10120EAE70246024800688B
:100B20000021704700480040E400002070B52DED22
:100B3000068B04460D46F0EE408AB0EE608AB0EEB9
:100B4000419AF0EE619A38EEC90AB0EE40AA38EE4A
:100B5000690AF0EE40AA9FEDC80A2AEE800A84EDE9
:100B6000000AB0EE480A09F09FFADFEDC30A6AEE08
:100B7000200A20EE200A85ED000ABDEC068B70BD30
:100B80000FB400B52DED048B83B068469FEDBB0A12
:100B900080ED000A9FEDB90A80ED010A9FEDB70ACA
:100BA00080ED020A00BF9DED0F1BB0EE410AF0EE92
:100BB000610A51EC100B09F079FD08EE100A9DED69
:100BC000111BB0EE410AF0EE610A51EC100B09F076
:100BD0006DFD08EE900A9DED081BB0EE410AF0EEA7
:100BE000610A51EC100B09F061FD09EE100A9DED50
:100BF0000A1BB0EE410AF0EE610A51EC100B09F04D
:100C000055FD09EE900AF0EE481AB0EE681AF0EEC3
:100C1000490AB0EE690A01A96846FFF787FF9DED12
:100C20000C0A8DED020A9DED000ADDED010A9DED35
:100C3000021A03B0BDEC048B5DF814FB00B52DED7A
:100C4000048B8DB08E4890ED050ADFED8E0AB4EE70
:100C5000E00AF1EE10FA0FD2DFED881AB3EE091AAE
:100C6000DFED860A9FED850A9121874805F045FF53
:100C70000DB0BDEC048B00BD814890ED0E0ADFED98
:100C8000830A30EE200A80ED0E0AD0ED0E0AB0EE97
:100C9000001A60EE810AB0EE600A09F041FAF3EE44
:100CA000090A20EE200AB0EE408A7548D0ED0E0AFF
:100CB000B0EE600A09F0F8F920EE080AF0EE408A7A
:100CC0006F48D0ED0E0AB0EE600A09F029FA20EE66
:100CD000080AB0EE409A19226949193103A809F0AF
:100CE00069FA092266491031684609F063FA6448D6
:100CF0000FC8FFF745FF8DED0A0ACDED0B0A8DED0C
:100D00000C1A9DED0B1A39EE411AF0EE410A9DEDD9
:100D10000A1A38EEC11AB0EE410ADFED581AB3EEE6
:100D2000091A9121584805F0E8FE554890ED0E0A41
:100D3000DFED570AB4EEE00AF1EE10FA06DD9FEDA2
:100D40004F0A80ED0E0A00204D49C86300BF00BF66
:100D50008EE72DE9F043E7B007468846914608F153
:100D60000C054C462878022850D1687800284DD1CF
:100D7000AD1C2E46307800F02000C8B1394601A8DD
:100D800004F0A6F8CC2201A934A809F013FA19221C
:100D900044A9204609F00EFAE06B012808D194F826
:100DA0003300032804D1606B012801D1FFF746FF0F
:100DB000308800F40070002828D032346078207029
:100DC000384603F0F4FE607014F8320901281DD192
:100DD00094F83300032819D1394601A804F078F8B3
:100DE000CC2201A934A809F0E5F9192244A904F19B
:100DF000190009F0DFF9606B18B926A00AF05AF95A
:100E000002E02AA00AF056F90120606367B0BDE84D
:100E1000F08310B51A48406B01280DD1184890EDA9
:100E2000050AF6EE000AB4EEE00AF1EE10FA03D37A
:100E300090F8330003280CD09FED100A104880ED85
:100E40000E0A00200E49C8631FA00AF033F90120E2
:100E500010BD9FED0A0A0A4880ED0E0A01200849DC
:100E6000C8630020F4E79FED050A054880ED0E0AEF
:100E700000200349C863704732A5C24A0000000041
:100E80003C1F00200000C441080000206F12033BFB
:100E9000C3F5C840486F6D65204C6F636174696F1E
:100EA0006E20536574210D0A00000000486F6D65C7
:100EB000204C6F636174696F6E2055706461746556
:100EC00064210D0A00000000506C65617365207498
:100ED000616B65206F6666206669727374210D0A06
:100EE000000000001CB50121084600F022FD0C2086
:100EF000009002208DF804008DF8050000208DF888
:100F0000060001208DF807006946624800F0C4FA27
:100F1000072202215F4800F04AFB072203215D48B7
:100F200000F045FB1CBD1CB50121022000F001FDB5
:100F30004FF44060009002208DF804008DF8050009
:100F400000208DF8060001208DF807006946524800
:100F500000F0A2FA07220A214F4800F028FB0722DE
:100F60000B214D4800F023FB1CBD1FB5FFF7BAFF56
:100F70000121480400F010FD4FF4E1300090002002
:100F8000ADF80400ADF80600ADF80800ADF80C00AF
:100F90000C20ADF80A006946404801F0C2FC01226D
:100FA00040F225513D4801F0FAFD01213B4801F096
:100FB00040FD00BF8021394801F016FE0128F9D11B
:100FC0001FBD1FB5FFF7AFFF0121880400F0E4FC4F
:100FD0004FF4613000900020ADF80400ADF8060039
:100FE000ADF80800ADF80C000C20ADF80A00694619
:100FF0002B4801F096FC012240F22551284801F0CF
:10100000CEFD0121264801F014FD00BF80212448B7
:1010100001F0EAFD0128F9D11FBD1CB54FF4A06015
:1010200000F05CF904208DF8050003208DF806001F
:1010300027208DF8040001208DF8070001A800F09A
:1010400052F903208DF8010002208DF802002620BD
:101050008DF8000001208DF80300684600F043F988
:101060001CBD10B5FFF781FFFFF7ABFFFFF7D5FF02
:1010700010BD10B520210A4801F0B6FD012808D1A5
:10108000074801F005FDC4B221460648006804F097
:1010900080FF10BD000002400004024000440040F8
:1010A000004800400400002010B5FFF7DAFF00F010
:1010B00075F800F003F800F038F810BD1FB50121F5
:1010C000084600F07AFC0121084600F076FC00207A
:1010D000ADF80C00ADF80600C720029042F2CF0038
:1010E000ADF8040000208DF80E0001A9704800F052
:1010F0000CFE19208DF8000003208DF801008DF8FA
:10110000020001208DF80300684600F0ECF8012190
:10111000674801F0AFFA01221146654801F096FADE
:101120000021634800F07AFE1FBD1FB5012108466B
:1011300000F032FC0121084600F02EFC0020ADF842
:101140000C00ADF80600C7200290272002904AF25A
:101150000F40ADF8040001A94FF0804000F0D5FD2C
:101160001C208DF8000002208DF8010003208DF86E
:10117000020001208DF80300684600F0B4F8012158
:10118000880701F077FA01221146900701F05EFA14
:1011900000214FF0804000F041FE1FBD30B54548B2
:1011A00000684FF47A72B0FBF2F1B1F1807F01D3A5
:1011B00001201DE021F07F40401E4FF0E0225061F1
:1011C00050170022002807DA13071D0E3A4B00F0D3
:1011D0000F04241F1D5503E013071C0E374B1C542E
:1011E00000BF00204FF0E022906107201061002036
:1011F00008B100BFFEE730BD002106E047F23051E4
:1012000000BF0A1EA1F10101FBD1021EA0F10103E2
:1012100098B2F3D170472A4800222A4B0168591A24
:1012200072EB020002DA00202549086024480068B9
:10123000401C23490860704700B59DB001211C483F
:1012400001F01BFA01280FD134221F49684608F02B
:10125000B1FF40221C490C390DA808F0ABFF1B4818
:101260000DA90EC908F07EFD0121114801F002FA16
:101270001DB000BD10B50121880701F0FEF901285D
:1012800011D113488079042808D11148C079012868
:1012900004D11049104805F0EBFB04E000214FF0A9
:1012A000804000F0BBFD0121880701F0E3F910BD8B
:1012B00000000140F800002018ED00E000E400E02C
:1012C000E4000020009C57FC1C0000203C1E002075
:1012D000101F0020281E0020080000203249014372
:1012E000324A1160704770B5002100230F22C47884
:1012F0001CB32E4C246804F4E064C4F5E064C4F329
:101300000721C1F10404E3B20A4144789C40E1B2F0
:101310008478144021430C07210E254C0578615533
:10132000047804F01F050124AC4005786D11AD0070
:1013300005F1E025C5F8004109E0047804F01F0537
:101340000124AC401B4D0678761145F8264070BD4F
:10135000194A0A400243154B1B1F1A60704739B1E6
:10136000124A121D12680243104B1B1D1A6006E040
:101370000E4A121D126882430C4B1B1D1A607047E7
:10138000042808D14FF0E021096941F004014FF031
:10139000E022116107E04FF0E021096921F004012A
:1013A0004FF0E022116170470000FA050CED00E0FB
:1013B00000E400E080E100E080FFFF1F10B504467C
:1013C0008C48844208D10121084600F007FB002127
:1013D000012000F003FB5EE08748844208D1012130
:1013E000022000F0FBFA0021022000F0F7FA52E0A0
:1013F0008248844208D10121042000F0EFFA002144
:10140000042000F0EBFA46E07D48844208D1012137
:10141000082000F0E3FA0021082000F0DFFA3AE0AB
:101420007848844208D10121102000F0D7FA002129
:10143000102000F0D3FA2EE07348844208D1012135
:10144000202000F0CBFA0021202000F0C7FA22E093
:101450006E48844208D10121402000F0BFFA0021EB
:10146000402000F0BBFA16E06948844208D101210F
:10147000802000F0B3FA0021802000F0AFFA0AE0EB
:101480006448844207D10121801500F0A7FA0021A9
:10149000A01500F0A3FA10BDF0B50A460021002304
:1014A000002400BF3DE0012505FA01F3156805EAB7
:1014B00003049C4234D105684F000326BE40B54367
:1014C000056015794E00B54006683543056015790D
:1014D000012D02D01579022D16D185684F00032603
:1014E000BE40B543856055794E00B54086683543AA
:1014F0008560456801268E40B5434560456896790C
:101500008E40B6B235434560C5684F000326BE40E5
:10151000B543C560D5794E00B540C6683543C56052
:10152000491C1029BFD3F0BD4FF6FF7101600021A7
:10153000017141718171C171704708B54FF48032FA
:101540000092009A0A430092009AC261C161009A17
:10155000C261C2690092C269009208BD02460020C1
:1015600013690B400BB1012000E0002070470146D9
:10157000086980B270470246002053690B400BB1E6
:10158000012000E0002070470146486980B27047A2
:1015900001837047418370470AB1018300E04183B2
:1015A00070474161704742694A4042617047F0B5F7
:1015B000002300244D07ED0E02FA05F3CE1000F1D2
:1015C000200555F826504E07F70E0F26BE40B543AE
:1015D000CF1000F1200646F82750CE1000F120056C
:1015E00055F8265045EA0304CE1000F1200545F8D1
:1015F0002640F0BD00000240000402400008024006
:10160000000C02400010024000140240001802408A
:10161000001C024000200240F948006840F0010030
:10162000F74908600020F64908310860F44800686E
:10163000F4490840F2490860F348091D0860F3487E
:10164000EF4984310860EE48006820F48020EC49BE
:1016500008600020EA490C31086070470021E84A20
:10166000921C117011460870704710B50146002297
:10167000002300204A11012A02D1E14C236808E02E
:10168000022A03D1DE4C7034236802E0DC4C74344F
:10169000236801F01F02012494401C400CB101207A
:1016A00000E0002010BD38B5002000900024002587
:1016B00000BF3120FFF7D9FF05460098401C00907D
:1016C0000098B0F5A06F01D0002DF2D03120FFF7C7
:1016D000CCFF08B1012400E00024204638BD0146BB
:1016E0000020C74A106820F0F80040EAC1001060EE
:1016F0007047C749086070470021C14A70321170B5
:101700001170012802D004280AD104E00121BC4A4A
:101710007032117005E00521B94A7032117000E095
:1017200000BF00BF7047BB490860704770B5049C9C
:1017300041EA82150126C6EB530645EA06450543F4
:1017400045EA0465AE4E361D356070BDB049086689
:101750007047820142EA0172A94B84331A607047D4
:10176000AB4988667047AA49C864704702460020A2
:10177000A34B0833186820F0EC6042EA01031843D9
:101780009F4B083318607047024600209C4B08337B
:10179000186820F0784042EA01031843984B083358
:1017A0001860704701460020954A0832106820F002
:1017B000030008431060704791480830006800F04B
:1017C0000C007047014600208D4A0832106820F056
:1017D000F00008431060704701460020884A083234
:1017E000106820F4E0500843106070470146002064
:1017F000834A0832106820F4604040EAC10010605B
:101800007047F0B5002100220024022500260223A3
:101810007B4F08373F6807F00C0121B1042905D040
:10182000082937D105E07C4F076036E07B4F076021
:1018300033E0734F3F1D3F68C7F38056704F3F1D25
:101840003F6807F03F036EB1744FB7FBF3F7DFF863
:10185000B0C10CF1040CDCF800C0CCF3881C07FB11
:101860000CF40CE06C4FB7FBF3F7DFF894C10CF10C
:10187000040CDCF800C0CCF3881C07FB0CF4604FB0
:101880003F1D3F68C7F301477F1C7D00B4FBF5F7A0
:10189000076002E0604F076000BF00BF584F083785
:1018A0003F6807F0F00109095D4F7A5C0768D7408F
:1018B0004760534F08373F6807F4E051890A584F93
:1018C0007A5C4768D74087604D4F08373F6807F418
:1018D0006041490B524F7A5C4768D740C760F0BD02
:1018E000002100F44072B2F5407F0AD1444A083228
:1018F000116821F4F8114B4A02401143404A083262
:1019000011603F4A70321268C0F30B031A433C4B1C
:1019100070331A6070473F494439086070473D4949
:101920004039086070474049086070473F49086087
:10193000704739B1324A303212680243304B30338B
:101940001A6006E02E4A3032126882432C4B303344
:101950001A60704739B12A4A343212680243284B60
:1019600034331A6006E0264A343212688243244B2C
:1019700034331A60704739B1214A38321268024351
:101980001F4B38331A6006E01D4A38321268824312
:101990001B4B38331A60704739B1194A403212680C
:1019A0000243174B40331A6006E0154A4032126872
:1019B0008243134B40331A60704739B1104A4432A6
:1019C000126802430E4B44331A6006E00C4A44325C
:1019D000126882430A4B44331A60704739B1084A8F
:1019E000103212680243064B10331A6006E0044AB4
:1019F000103212688243024B10331A6070470000A5
:101A000000380240FFFFF6FA1030002400300020BA
:101A100000004742800E47420024F40000127A0082
:101A2000E8000020FFFCFF0F5C014742E011474245
:101A300029B15E4A126802435C4B1A6004E05B4ABB
:101A400012688243594B1A60704739B1574A121DC8
:101A500012680243554B1B1D1A6006E0534A121DC3
:101A600012688243514B1B1D1A60704739B14F4AAF
:101A70000C32126802434D4B0C331A6006E04B4A9D
:101A80000C3212688243494B0C331A60704739B1EB
:101A9000464A103212680243444B10331A6006E083
:101AA000424A103212688243404B10331A6070472A
:101AB00039B13E4A3C32126802433C4B3C331A6017
:101AC00006E03A4A3C3212688243384B3C331A6093
:101AD000704739B1354A403212680243334B4033C4
:101AE0001A6006E0314A4032126882432F4B40337D
:101AF0001A60704739B12D4A4432126802432B4BA9
:101B000044331A6006E0294A443212688243274B64
:101B100044331A60704739B1244A4C321268024388
:101B2000224B4C331A6006E0204A4C321268824342
:101B30001E4B4C331A60704739B11C4A5032126840
:101B400002431A4B50331A6006E0184A50321268AA
:101B50008243164B50331A60704739B1134AD21F73
:101B600012780243114BDB1F1A7006E00F4AD21F96
:101B7000127882430D4BDB1F1A7070470B486030A0
:101B8000006840F080700949603108607047014684
:101B90000020064A083A12680A400AB1012000E013
:101BA000002070470149891F0870704714380240AF
:101BB00010B50446FE48844208D101210846FFF7CB
:101BC00066FF00210120FFF762FF9DE0B4F1804F26
:101BD00008D101210846FFF749FF00210120FFF746
:101BE00045FF91E0F348844208D101210220FFF72C
:101BF0003DFF00210220FFF739FF85E0EE488442D7
:101C000008D101210420FFF731FF00210420FFF754
:101C10002DFF79E0E948844208D101210820FFF72F
:101C200025FF00210820FFF721FF6DE0E4488442F2
:101C300008D101211020FFF719FF00211020FFF724
:101C400015FF61E0DF48844208D101212020FFF721
:101C50000DFF00212020FFF709FF55E0DA488442FC
:101C600008D101210220FFF712FF00210220FFF717
:101C70000EFF49E0D548844209D101210804FFF74D
:101C800006FF00214FF48030FFF701FF3CE0D04811
:101C9000844209D101214804FFF7F9FE00214FF4E5
:101CA0000030FFF7F4FE2FE0CA48844209D1012139
:101CB0008804FFF7ECFE00214FF48020FFF7E7FED9
:101CC00022E0C548844208D101214020FFF7CEFE22
:101CD00000214020FFF7CAFE16E0C048844208D128
:101CE00001218020FFF7C2FE00218020FFF7BEFE09
:101CF0000AE0BB48844207D101218015FFF7B6FEF8
:101D00000021A015FFF7B2FE10BD00220288A84BEB
:101D100098420ED0AC4B98420BD0B0F1804F08D017
:101D2000A44B984205D0A44B984202D0A34B9842B2
:101D300004D14FF68F731A404B881A43A04B984238
:101D400007D0A04B984204D04FF6FF431A400B89AE
:101D50001A4302804B68C3620B880385944B9842F8
:101D600002D0994B984201D18B7A0386012383825A
:101D700070474FF0FF3141600021018001814180B7
:101D8000817270470185828270470A46002101886E
:101D90004FF68F73194011430180704741627047BD
:101DA000C16270470146486A70470146088D704716
:101DB00021B1028842F00202028004E002884FF65C
:101DC000FD731A400280704721B1028842F004027C
:101DD000028004E002884FF6FB731A4002807047CD
:101DE00021B1028842F08002028004E002884FF6AE
:101DF0007F731A400280704702884FF6F7731A40CB
:101E0000028002880A430280704702884FF6FF432F
:101E10001A40028002880A430280704721B102887A
:101E200042F00102028004E002884FF6FE731A407D
:101E30000280704770B5002400220023058C4FF605
:101E4000FE7635400584028C8388048B4FF68F75AF
:101E50002C40B51E2C400D882C43751E2A408D89C0
:101E60002A434D882A43524DA84202D0564DA842DB
:101E700013D14FF6F7752A40CD892A434FF6FB75EB
:101E80002A408D882A434FF6FF652B404FF6FF55B9
:101E90002B400D8A2B434D8A2B43838004838D680E
:101EA0004563028470BD70B5002400220023058CB8
:101EB0004FF6EF7635400584028C8388048B48F614
:101EC000FF752C404FF6FF452C400D884FF6FF76EE
:101ED00006EA05252C434FF6DF752A408D8906EA70
:101EE00005152A434D8806EA05152A43304DA842B8
:101EF00002D0354DA8421DD14FF67F752A40CD89BD
:101F00004FF6FF7606EA05152A434FF6BF752A40BD
:101F10008D8806EA05152A434FF6FF352B404FF210
:101F2000FF752B400D8A06EA85052B434D8A06EA8C
:101F300085052B43838004838D688563028470BD8F
:101F400070B5002400220023058C4FF6FF66354053
:101F50000584028C8388848B4FF68F752C404FF656
:101F6000FC752C400D882C434FF6FF552A408D8977
:101F70004FF6FF7606EA05252A434D8806EA052531
:101F80002A430B4DA84202D00F4DA84238D14FF240
:101F9000FF752A40CD894FF6FF7606EA05252A43CC
:101FA0004FF6FF352A408D8806EA05252A4319E0B9
:101FB000000001400004004000080040000C004008
:101FC00000100040001400400004014000400140A7
:101FD000004401400048014000180040001C00403F
:101FE000002000404EF6FF752B404DF6FF752B404C
:101FF0000D8A06EA05152B434D8A06EA05152B4383
:10200000838084838D68C563028470BD70B50022AF
:1020100000230024058C4EF6FF7635400584038CA2
:102020008488828B48F6FF752A404FF6FF452A4088
:102030000D884FF6FF7606EA05252A434DF6FF7513
:102040002B408D8906EA05352B434D8806EA053578
:102050002B43FE4DA84202D0FD4DA84208D14BF6BD
:10206000FF752C400D8A4FF6FF7606EA85152C4346
:10207000848082838D680564038470BD00210180A3
:102080004180818081608181C1810182418270476C
:1020900070B50346002000241846183001258D40F5
:1020A000ACB21D8CA5431D8409B108290AD100EBEF
:1020B000610005684FF68F76354005600568154369
:1020C00005600FE00D1FC5F34E052844056848F66E
:1020D000FF763540056005684FF6FF7606EA022672
:1020E0003543056070BD4163704781637047C163CC
:1020F0007047016470470A460021018B4FF68F73C9
:1021000019401143018370470A460021018B48F6AC
:10211000FF7319404FF6FF7303EA0223194301834B
:1021200070470A460021818B4FF68F731940114387
:10213000818370470A460021818B48F6FF7319405E
:102140004FF6FF7303EA02231943818370470A465F
:102150000021018B4FF6F77319401143018370473B
:102160000A460021018B4FF2FF7319404FF6FF73AF
:1021700003EA02231943018370470A460021818B39
:102180004FF6F77319401143818370470A460021C7
:10219000818B4FF2FF7319404FF6FF7303EA02235E
:1021A0001943818370470A460021018B4FF6FB7368
:1021B00019401143018370470A460021018B4FF6F5
:1021C000FF3319404FF6FF7303EA022319430183DB
:1021D00070470A460021818B4FF6FB73194011436B
:1021E000818370470A460021818B4FF6FF331940E7
:1021F0004FF6FF7303EA02231943818370470A46AF
:102200000021018B4FF67F73194011430183704702
:102210000A460021018BC1F30E014FF6FF7303EA5A
:1022200002231943018370470A460021818B4FF630
:102230007F7319401143818370470A460021818BC7
:10224000C1F30E014FF6FF7303EA022319438183A2
:1022500070470A460021018C4FF6FD731940114367
:10226000018470470A460021018C4FF6F77319402C
:102270001143018470470A460021018C4FF6DF7339
:1022800019404FF6FF7303EA0213194301847047A4
:102290000A460021018C4FF67F7319404FF6FF73F9
:1022A00003EA02131943018470470A460021018C96
:1022B0004FF6FF5319404FF6FF7303EA0223194309
:1022C000018470470A460021018C4FF2FF731940C8
:1022D0004FF6FF7303EA02231943018470470A464D
:1022E0000021018C4DF6FF7319404FF6FF7303EA8E
:1022F000023319430184704730B5002301248C4018
:10230000A3B2048C9C430484048C02FA01F5ADB2A0
:102310002C43048430BD30B5002304248C40A3B288
:10232000048C9C430484048C02FA01F5ADB22C4366
:10233000048430BD828B4FF2FF331A408283828B3C
:102340004FF6FF7303EA01231A4382837047F0B507
:102350000C461546002100220026078C4EF6FF7C15
:1023600007EA0C070784818B028C4FF6FF7707EA98
:10237000043640F6FF4739404FF6FF7707EA052756
:1023800039434FF6FF7707EA0337394345F6FF77BE
:102390003A4046F480573A4381830284F0BD828BF1
:1023A0004FF6F3731A408283828B0A43828370470D
:1023B000F0B50C461546002100220026078C4FF68A
:1023C000FF6C07EA0C070784818B028C4FF6FF77BE
:1023D00007EA04264FF60C7739404FF6FF7707EAF5
:1023E00003172F4339434FF2FF573A4046F48077A3
:1023F0003A4381830284F0BD028B4FF2FF331A40CF
:102400000283028B4FF6FF7303EA01231A43028310
:102410007047F0B50C461546002100220026078CB7
:102420004FF6EF7C07EA0C070784018B028C4FF60E
:10243000FF7707EA041640F6FF4739404FF6FF776B
:1024400007EA033739434FF6FF7703E00000014006
:102450000004014007EA052739434FF65F773A4009
:1024600046F010073A4301830284F0BD028B4FF619
:10247000F3731A400283028B0A4302837047F0B55C
:102480000C46154600210022068C4FF6FE773E4092
:102490000684018B028C4FF60C7631407E1C06EAD6
:1024A00003162E4331434FF6F576324044F00106D1
:1024B000324301830284F0BD70B505460C46208886
:1024C00050B92389A28861882846FFF7D8FFE188A0
:1024D0002846FFF7CBFF25E0208804280AD123896E
:1024E000A28861882846FFF794FFE1882846FFF715
:1024F00083FF17E0208808280AD12389A2886188F1
:102500002846FFF755FFE1882846FFF748FF09E016
:102510002389A28861882846FFF719FFE1882846A9
:10252000FFF708FF70BD00210180418001218180FB
:102530000021C180018170472DE9F04105460C461C
:1025400000260127608808B9022600E00026A0883E
:10255000012801D1022700E001272088A0B92389A2
:10256000A28861882846FFF78AFFE1882846FFF79E
:102570007DFF23893A4631462846FFF74AFFE18826
:102580002846FFF739FF13E02389A288618828468F
:10259000FFF73FFFE1882846FFF72EFF23893A46E1
:1025A00031462846FFF76BFFE1882846FFF75EFFBC
:1025B000BDE8F0810146486B70470146886B704763
:1025C0000146C86B70470146086C70470A884B8803
:1025D0001A438B881A43CB881A430B891A434B89B9
:1025E0001A438B891A43A0F84420704700210180C8
:1025F00041808180C180018141818181704731B1F9
:10260000B0F8442042F40042A0F8442005E0B0F8BD
:102610004420C2F30E02A0F84420704721B1828802
:1026200042F00402828004E082884FF6FB731A4075
:102630008280704721B1828842F00102828004E0EA
:1026400082884FF6FE731A40828070471AB18389E0
:102650000B43838102E083898B43838170478182AE
:10266000704702460020138A0B400BB1012000E0A6
:1026700000207047CA430282704730B502460020EE
:1026800000230024158A05EA0103958905EA01045F
:1026900013B10CB1012000E0002030BDCA4302821A
:1026A000704741EA0203A0F8483070471AB18389A5
:1026B0000B43838102E083898B438381704721B17F
:1026C000828842F00802828004E082884FF6F77325
:1026D0001A408280704701894FF6F87211400181DB
:1026E00070470A46002101894FF68F731940114344
:1026F0000181704730B504460D4629462046FFF754
:10270000F0FF208940F00700208130BD2DE9F04125
:1027100004460D4616461F46602D06D13B46012253
:1027200031462046FFF775FE05E03B460122314663
:102730002046FFF7A4FE29462046FFF7D2FF208956
:1027400040F007002081BDE8F08130B50C46002143
:102750000189C9B24FF6FF7505EA032515432543E4
:102760002943018130BD2DE9F04105460E4617464B
:102770009846002443463A4631462846FFF7E5FF8F
:102780002C894FF6F870044044F007044FF68F7020
:10279000044044F070042C81BDE8F081F0B504469B
:1027A0000D4616461F463B46324629462046FFF751
:1027B000CCFF208940F480402081F0BD82884FF614
:1027C0008F731A40828082880A4382807047028910
:1027D0004FF6F8731A40028102890A43028170475A
:1027E00002894FF67F731A40028102890A430281EF
:1027F0007047F0B50C4615461E4600210022002306
:102800000189028B038C4FF6F877394021434FF64C
:10281000FC473A4040F201173A434FF6DD773B4020
:102820004FF6FF7707EA06172F433B4301810283E8
:102830000384F0BD21B1828842F08002828004E0EE
:1028400082884FF67F731A4082807047A0F850103C
:102850007047000010B50446FA48844208D10121AF
:102860001020FFF714F900211020FFF710F957E0AE
:10287000F548844209D101214804FFF7F7F8002107
:102880004FF40030FFF7F2F84AE0F048844209D1F3
:1028900001218804FFF7EAF800214FF48020FFF7B8
:1028A000E5F83DE0EA48844209D10121C804FFF778
:1028B000DDF800214FF40020FFF7D8F830E0E548BC
:1028C000844209D101210805FFF7D0F800214FF417
:1028D0008010FFF7CBF823E0DF48844208D10121C4
:1028E0002020FFF7D4F800212020FFF7D0F817E0D0
:1028F000DA48844209D101218807FFF7B7F800219F
:102900004FF08040FFF7B2F80AE0D548844207D183
:1029100001214005FFF7AAF800216005FFF7A6F89E
:1029200010BD2DE9FF4705460E460024A14600BF15
:10293000A046B08900B100BF2C8A24F44054F0882E
:1029400004432C82AC8941F20C608443B088318905
:102950000843718908430443AC81AC8A24F4407471
:10296000B0890443AC826846FEF74BFFB548854208
:1029700002D0B948854202D1DDF80C9001E0DDF8C3
:102980000890A88900F4004040B109EBC90000EBB1
:10299000091031684900B0FBF1F707E009EBC90005
:1029A00000EB091031688900B0FBF1F76420B7FB38
:1029B000F0F004012009642101FB1078A88900F4DB
:1029C000004040B1322000EBC800B0FBF1F000F055
:1029D0000700044308E0322000EB08106421B0FB3C
:1029E000F1F000F00F0004432C81BDE8FF874FF4A5
:1029F0001651016000218180C18001810C2141813B
:102A000000218181704710B502460020108A20F411
:102A100070600B884C8823438C882343CC882343E5
:102A20001843108210BD0021018041808180C18047
:102A3000704721B1828942F40052828104E0828988
:102A40004DF6FF731A4082817047028B02F47F4279
:102A50000283028B0A430283704721B1828942F4C8
:102A60000042828103E08289C2F30E0282817047B4
:102A700021B1828A42F40062828204E0828A4FF2AB
:102A8000FF731A4082827047C1F308028280704748
:102A900001468888C0F308007047028A4FF6F07339
:102AA0001A400282028A0A430282704721B1828957
:102AB00042F00202828104E082894FF6FD731A40DF
:102AC0008281704782894FF2FF731A408281828926
:102AD0000A4382817047028A4FF6DF731A400282EE
:102AE000028A0A430282704721B1028A42F480427C
:102AF000028204E0028A4BF6FF731A40028270479A
:102B0000818941F001018181704721B1828A42F0BF
:102B10000802828204E0828A4FF6F7731A408282AA
:102B20007047028BD2B20283028B42EA01220283F7
:102B3000704721B1828A42F02002828204E0828AB8
:102B40004FF6DF731A408282704721B1828A42F0C9
:102B50001002828204E0828A4FF6EF731A4082826A
:102B60007047828A4FF6FB731A408282828A0A4338
:102B70008282704721B1828A42F00202828204E09E
:102B8000828A4FF6FD731A40828270471AB1838A97
:102B90000B43838202E0838A8B4383827047F0B5C4
:102BA0000346002400260025002040F66A17B9429B
:102BB00000D100BF1846C1F3421401F01F060127DF
:102BC00007FA06F5012C01D10C3004E0022C01D1EA
:102BD000103000E014301AB107682F43076002E09C
:102BE0000768AF430760F0BD02460020B1F5007FE3
:102BF00000D100BF13880B400BB1012000E0002082
:102C0000704701F40072B2F5007F00D100BFCA43E3
:102C10000280704770B50246002400230025002082
:102C200040F66A16B14200D100BFC1F3421501F06F
:102C30001F03012606FA03F3012D13D196893340B1
:102C400017E0000000100140004400400048004030
:102C5000004C00400050004000140140007800404B
:102C6000007C0040022D02D1168A334001E0968A92
:102C700033400C12012606FA04F41688344013B1CE
:102C80000CB1012000E0002070BD10B5002200232F
:102C900040F66A14A14200D100BF0A1201249440F8
:102CA000A3B2DC43048010BD0CB50020019000905D
:102CB0007648006840F480307449086000BF73486B
:102CC000006800F4003000900198401C01900098CA
:102CD00018B90198B0F5A06FF1D16C48006800F404
:102CE000003010B10120009001E000200090009819
:102CF000012846D165484030006840F08050634963
:102D0000403108606248006840F440406049086013
:102D10005E48083000685D49083108600846006870
:102D200040F4004008600846006840F4A050086085
:102D30005848091F0860081F006840F08070091F8C
:102D4000086000BF5148006800F000700028F9D00A
:102D500040F20570504908604C480830006820F087
:102D600003004A49083108600846006840F0020044
:102D7000086000BF45480830006800F00C000828D3
:102D8000F8D10CBD10B54548006840F470004349C7
:102D900008603E48006840F001003C49086000209F
:102DA0003A4908310860394800683D4908403749C8
:102DB00008603C48091D0860081F006820F4802056
:102DC000091F0860002031490C310860FFF76CFFD3
:102DD0004FF0006031498039086010BD70B50020A7
:102DE0000022022300240221284D08352D6805F019
:102DF0000C0020B1042806D0082834D107E02A4D61
:102E00002A4E356033E02A4D284E35602FE01F4DA5
:102E10002D1D2D68C5F380541C4D2D1D2D6805F00A
:102E20003F0154B1224DB5FBF1F5184E361D366801
:102E3000C6F3881605FB06F209E01B4DB5FBF1F55C
:102E4000124E361D3668C6F3881605FB06F20F4D86
:102E50002D1D2D68C5F301456D1C6B00B2FBF3F50C
:102E6000124E356003E0104D104E356000BF00BFBC
:102E7000064D08352D68C5F303150E4E705D0B4DDC
:102E80002D68C540094E356070BD00000038024015
:102E90000070004008544007003C024088ED00E00C
:102EA000FFFFF6FE103000240024F400F80000209C
:102EB00000127A00FC0000200648804706480047C0
:102EC000FEE7FEE7FEE7FEE7FEE7FEE7FEE7FEE7DA
:102ED000FEE7FEE7852D0008890100087FB504465E
:102EE0000D46089E41F2085005510020A4F8E40662
:102EF0000B20C4F8AC01002084F8B001002140F29E
:102F0000EA600153801E01530020A4F8E60684F80D
:102F10000C1BC4F8C4054FF4B96001510020C4F87B
:102F2000BC054FF4B86001510020C4F8CC05C4F8CA
:102F3000D4054FF4BA6001510020C4F8DC054FF409
:102F4000BC6001514FF4BB6001510020C4F8E4059E
:102F50004FF4BD6001510020C4F8EC054FF4BE6091
:102F600001510298C4F8F4054FF4BF600399015170
:102F7000002141F20C500155401C0155801C0155A7
:102F8000401E0155801E06550020207063206060A1
:102F9000C4F88F16FF20C4F8DC0041F20852105923
:102FA00012591268516A8847C92104F1E00007F0FC
:102FB00028F941F20852105912591268916A88474B
:102FC000204606F08DF97FBD2DE9FE4306460F46EB
:102FD00014461D46DDF828800195CDF80880009440
:102FE00039463046DDE90123FFF778FF3046BDE87A
:102FF000FE830146D1F88F0670477FB582B0044644
:103000000D460A9E009629462046DDE90423FFF777
:1030100065FF2046FFF7EDFF204606B070BD7FB587
:1030200084B0044616461D462A46314604F2B15085
:1030300007F0C0F89DF8160000F01F01BDF804006D
:1030400061F30700ADF80400BDF81400ADF8060008
:103050009DF81600C0F34011BDF8040061F30F2085
:10306000ADF8040004F2B1500390029501A9204686
:1030700006F044F808B070BD2DE9F04F85B0044665
:103080000E4617469846DDF838B0DDF84CA0DDF85E
:10309000409004F2B11505F8018B05F801BB4A46D2
:1030A00004F2B3100F9907F085F811980390BDF85A
:1030B000000066F30100ADF8000009F10200019084
:1030C00004F2B1100290BDF800006AF3CF00ADF831
:1030D0000000129880B2ADF80200BDF8000067F35E
:1030E0008200ADF80000002004906946204605F0FB
:1030F00052FB05B0BDE8F08F2DE9F04F85B00446D6
:103100000F4616469846DDF838B0DDF848A0DDF8E1
:10311000409004F2B11505F8018B05F801BB4A4651
:1031200004F2B3100F9907F045F813980390BDF817
:10313000000067F30100ADF8000009F10200019002
:1031400004F2B1100290BDF800006AF3CF00ADF8B0
:103150000000119880B2ADF80200BDF8000066F3DF
:103160008200ADF80000149804906946204605F0EE
:1031700012FB05B0BDE8F08F70B504460D46294638
:10318000204605F008FB70BD2DE9FF4104460D46C1
:1031900017462868C0F30920103802287CD8286810
:1031A000C0F30920A0F1100205F10C0103A807F0FB
:1031B00001F8BDF80C10204603F035F8BDF80C00FE
:1031C00009286AD2DFE800F00550732F94B5D6F9CC
:1031D000EE0040F20730F34BF3A2F5A10090FE4859
:1031E00007F078FF0646701C58B1B6F5806F08DA14
:1031F00041F208510859095909684A6D0021904760
:1032000007E041F208510859095909684A6DF3A1CC
:103210009047D4F8DF0620B1D4F8DF16204605F039
:103220000FF9BDE8FF8140F20D30DE4BDEA2F3491D
:103230000090E94807F04EFF0646701C58B1B6F5FD
:10324000806F08DA41F208510859095909684A6D36
:103250000021904707E041F20851085909590968CF
:103260004A6DDEA1904712E140F21130CD4BE4A24D
:10327000E5A10090D84807F02DFF0646701C68B104
:10328000B6F5806F0ADA41F2085108590959096800
:103290004A6D0021904709E0FAE0D0E041F2085180
:1032A0000859095909684A6DCCA19047EFE04FF4DD
:1032B0004570BC4BD2A2DCA10090C74807F00AFFC2
:1032C0000646701C58B1B6F5806F08DA41F2085115
:1032D0000859095909684A6D0021904707E041F2F1
:1032E00008510859095909684A6DBCA19047CEE0B8
:1032F00040F21730AB4BC2A2D3A10090B64807F002
:10330000E9FE0646701C58B1B6F5806F08DA41F246
:1033100008510859095909684A6D0021904707E08A
:1033200041F208510859095909684A6DABA1904703
:10333000ADE040F21A309B4BB1A2CCA10090A64860
:1033400007F0C8FE0646701C58B1B6F5806F08DA63
:1033500041F208510859095909684A6D00219047FE
:1033600007E041F208510859095909684A6D9BA1C3
:1033700090478CE040F21E308A4BA1A2C8490090D1
:10338000954807F0A7FE0646701C68B1B6F5806F39
:103390000ADA41F208510859095909684A6D0021B1
:1033A000904709E02AE008E041F20851085909591C
:1033B00009684A6D89A1904769E040F22230794B53
:1033C0008FA2B8A10090844807F084FE0646701CC6
:1033D00058B1B6F5806F08DA41F208510859095919
:1033E00009684A6D0021904707E041F208510859E9
:1033F000095909684A6D79A1904748E040F22530A3
:10340000684B7FA2B1A10090734807F063FE0646A7
:10341000701C58B1B6F5806F08DA41F208510859AE
:10342000095909684A6D0021904707E041F20851A7
:103430000859095909684A6D68A1904727E0BDF805
:103440000C10204602F0D2FD00BB40F22A30554B52
:103450006BA2A9A10090604807F03CFE0646701CD4
:1034600058B1B6F5806F08DA41F208510859095988
:1034700009684A6D0021904707E041F20851085958
:10348000095909684A6D55A1904700BF00BF27E060
:10349000288980B22968C1F3046140F23132414B7E
:1034A000CDE90021029056A29EA14B4807F012FEE2
:1034B0000646701C58B1B6F5806F08DA41F2085123
:1034C0000859095909684A6D0021904707E041F2FF
:1034D00008510859095909684A6D40A1904700BF31
:1034E00000BF9EE62DE9F04188B004460D46164621
:1034F0001F46D4F88F06002823D14FF4C270984B92
:103500003FA298A10090344807F0E4FD804608F1FE
:10351000010058B1B8F5806F08DA41F20851085936
:10352000095909684A6D0021904707E041F20851A6
:103530000859095909684A6D28A1904708B0BDE8A3
:10354000F081D4F88F06A8603022294604F2B360D7
:1035500006F030FE0221C4F8B716002004E0302245
:1035600004F2BF610A54401C2028F8DB0EB130463B
:1035700001E0AFF2EB3003214FF47A72CDE9050799
:10358000CDE903212C2104F2B36001220023CDE90F
:10359000002002911A4602212046FFF7ADFD00BF30
:1035A000CCE7000047CD0008535441545553000068
:1035B00025732025732C6C696E652025643A2041A3
:1035C000637469766174656420737563636573738E
:1035D00066756C6C790A00007C1F00204552524FC2
:1035E000523A206C6F67207072696E746572206940
:1035F0006E6E6572206661756C740A00ECDB000803
:103600004552524F5200000025732025732C6C69DF
:103610006E652025643A2057726F6E672070617264
:10362000616D657465720A0025732025732C6C69C1
:103630006E652025643A20456E636F64652065726F
:10364000726F720A0000000025732025732C6C69CC
:103650006E652025643A20444A49474F206E6F74B6
:1036600020636F6E6E65637465640A0025732025A0
:10367000732C6C696E652025643A20444A49474F93
:10368000206E6F7420636F6E6E6563746564207462
:103690006F2074686520696E7465726E65740A00C7
:1036A000A0DB000825732025732C6C696E6520252E
:1036B000643A2057726F6E672053444B20706572D6
:1036C0006D697373696F6E0A000000002573202511
:1036D000732C6C696E652025643A2053444B207628
:1036E000657273696F6E20646964206E6F74206DFB
:1036F000617463680A00000025732025732C6C69CF
:103700006E652025643A205768696C652063616C9A
:103710006C696E6720746869732066756E6374697E
:103720006F6E000025732025732C6C696E65202553
:10373000643A2041434B2069732065786365707457
:10374000696F6E2C2073657373696F6E20696420D6
:1037500025642C73657175656E63652025640A00A8
:1037600012CD000825732025732C6C696E65202509
:10377000643A20506C656173652063616C6C2067EE
:10378000657444726F6E6556657273696F6E2066FC
:10379000697273742E0A00002DE9F34F99B0044644
:1037A000402109A806F02DFD402209A81A9906F02B
:1037B00001FD09AD2E462878697800EB0120A4F8B8
:1037C0006D06AD1C002005900690079008900490AF
:1037D00030E0297805AA049811540498401C0490FC
:1037E0006D1CA81B122825DDE720FE4BAFF2F0125E
:1037F000FD490090FD4807F06DFC83460BF1010088
:1038000058B1BBF5806F08DA41F2085108590959DF
:1038100009684A6D0021904708E041F208510859B3
:10382000095909684A6DAFF24C21904700201BB03E
:10383000BDE8F08F28780028CBD1297805AA049814
:1038400011546D1C2022294604F2936006F0B2FC4C
:1038500027E06D1CA81B402823DDF620E14BAFF2CA
:103860006022E1490090E14807F034FC83460BF107
:10387000010058B1BBF5806F08DA41F208510859D0
:10388000095909684A6D0021904708E041F2085142
:103890000859095909684A6DAFF2C02190470020C4
:1038A000C5E728782028D4D16D1C27E06D1CA81B03
:1038B000402823DDFF20CB4BAFF2BC22CA49009049
:1038C000CA4807F007FC83460BF1010058B1BBF56D
:1038D000806F08DA41F208510859095909684A6DA0
:1038E0000021904708E041F2085108590959096838
:1038F0004A6DAFF218319047002098E728782028C9
:10390000D4D16D1C0020039030E02A7804F283604B
:10391000039942546D1C0398401C0390A81B402837
:1039200024DD4FF48670AF4BAFF22C32AE490090DD
:10393000AE4807F0CFFB83460BF1010058B1BBF551
:10394000806F08DA41F208510859095909684A6D2F
:103950000021904708E041F20851085909590968C7
:103960004A6DAFF288319047002060E728782D2813
:10397000CBD1002204F28360039942546D1C90461F
:103980009146002792462DE0287830380A2108FB1E
:1039900001086D1CA81B402824DD40F21B10914B30
:1039A000AFF2A43290490090904807F093FB834611
:1039B0000BF1010058B1BBF5806F08DA41F20851F4
:1039C0000859095909684A6D0021904708E041F2F9
:1039D00008510859095909684A6DAFF200419047EA
:1039E000002024E728782E28CED16D1C2DE02878E1
:1039F00030380A2109FB01096D1CA81B402824DD71
:103A00004FF49270774BAFF20842774900907748B5
:103A100007F060FB83460BF1010058B1BBF5806FE6
:103A200008DA41F208510859095909684A6D00211C
:103A3000904708E041F208510859095909684A6D50
:103A4000AFF2684190470020F1E628782E28CED1C9
:103A50006D1C2DE0287830380A2107FB01076D1C0A
:103A6000A81B402824DD40F22D105E4BAFF27042BF
:103A70005D4900905D4807F02DFB83460BF1010086
:103A800058B1BBF5806F08DA41F20851085909595D
:103A900009684A6D0021904708E041F20851085931
:103AA000095909684A6DAFF2CC4190470020BEE643
:103AB00028782E28CED16D1C2DE0287830380A21A8
:103AC0000AFB010A6D1CA81B402824DD4FF49B70E3
:103AD000444BAFF2D44244490090444807F0FAFA0C
:103AE00083460BF1010058B1BBF5806F08DA41F253
:103AF00008510859095909684A6D0021904708E0A2
:103B000041F208510859095909684A6DAFF2345118
:103B1000904700208BE628780028CED14FF07F40D8
:103B200000EA08604FF47F0101EA094108434FF4BD
:103B30007F4101EA072108430AF0FF010843C4F866
:103B40008F062BA104F2836006F066FBA8B907EB91
:103B5000870047004FF07F4000EA08604FF47F0184
:103B600001EA094108434FF47F4101EA0721084374
:103B70000AF0FF010843C4F88F06D4F88F061E49E7
:103B8000884215D107EB870047004FF07F4000EADD
:103B900008604FF47F0101EA094108434FF47F4177
:103BA00001EA072108430AF0FF010843C4F88F0621
:103BB000D4F88F061149884263D29DF814009DF80D
:103BC000151000EB01209DF8161000EB01409DF848
:103BD000171000EB0161C4F86F160DF1180B0020EF
:103BE000029043E031CD000844DC00087C1F002037
:103BF0004D31303000000000000A020300000203D3
:103C00009BF8002004F27360029942540298401C11
:103C100002900BF1010B06A8ABEB00000C2825DD90
:103C20004FF4AB70EA4BAFF22862EAA10090F4487F
:103C300007F050FA01900198401C60B10198B0F56E
:103C4000806F08DA41F208510859095909684A6D2C
:103C50000021904708E041F20851085909590968C4
:103C60004A6DAFF2886190470020E0E59BF80000C4
:103C70000028C5D19BF8002004F2736002994254D9
:103C800048E00021C4F86F160DF1140B00200290DB
:103C900035E09BF8002004F27360029942540298C8
:103CA000401C02900BF1010B05A8ABEB00001028A3
:103CB00025DD4FF4B370C64BAFF2BC62C5A10090D6
:103CC000CF4807F007FA01900198401C60B10198B5
:103CD000B0F5806F08DA41F20851085909590968AE
:103CE0004A6D0021904708E041F2085108590959EE
:103CF00009684A6DAFF21C719047002097E59BF868
:103D000000000028C5D19BF8002004F273600299DE
:103D1000425400BF01208AE52DE9F04389B00646F0
:103D20000C4615464FF6FF70A4F86D060021C4F846
:103D30006F16C4F88F1684F8931664274FF00308A3
:103D400000200890CDE9048003970690012008A97F
:103D500000221346CDE90021029002212046FFF700
:103D6000CBF941F20852105912591268D16A8847AA
:103D700041F208510859095909688A6B2946904748
:103D800041F20852105912591268116B884704F118
:103D9000700949462046FFF7FFFC30B90021C4F8FE
:103DA0006F16C4F88F1684F89316462204F26D61DC
:103DB000304606F0FFF909B0BDE8F08370B592B067
:103DC00004460D461646D4F88F0620B90122214636
:103DD0006846FFF7A1FFD4F88F06A8603022294675
:103DE00004F2B36006F0E6F90221C4F8B716002029
:103DF00004E0302204F2BF610A54401C2028F8DBA2
:103E0000002003224FF47A73CDE904202C21039380
:103E1000069004F2B36001220023CDE90020029154
:103E20001A4602212046FFF767F941F2085210595D
:103E300012591268D16A884741F208510859095944
:103E400009688A6B3146904741F20852105912595D
:103E50001268116B8847B4F870006060606838B908
:103E6000D4F8DF0620B1D4F8DF16204604F0E8FAD3
:103E7000A08880B212B070BDF0B589B004460D467E
:103E800017464FF6FF700890012007902868C0F38E
:103E90000920103802280AD82868C0F30920A0F1A8
:103EA000100205F10C0108A806F084F92AE028891F
:103EB00080B22968C1F3046140F22D42514BCDE933
:103EC00000210290AFF6C802AFF2A8714C4807F08B
:103ED00001F90646701C58B1B6F5806F08DA41F258
:103EE00008510859095909684A6D0021904708E0AE
:103EF00041F208510859095909684A6DAFF6241171
:103F0000904700BFBDF8200003285DD005DC48B114
:103F1000012853D0022858D1CEE0042856D0C92811
:103F2000F9D16BE1D4F88F063749884222D240F2AA
:103F30003640344BAFF6901234A10090304807F071
:103F4000C9F80646701C58B1B6F5806F08DA41F220
:103F500008510859095909684A6D0021904708E03D
:103F600041F208510859095909684A6DAFF6941190
:103F7000904722E040F23A40224BAFF6D41231A1F2
:103F800000901F4807F0A6F80646701C58B1B6F519
:103F9000806F08DA41F208510859095909684A6DD9
:103FA0000021904708E041F2085108590959096871
:103FB0004A6DAFF6D811904700BF6DE140F23E4028
:103FC000104BAFF61C2259E099E03AE1D6E0000030
:103FD00031CD000825732025732C6C696E65202572
:103FE000643A2044726F6E652049442077617320E3
:103FF0006E6F74206F627461696E65642E000000DC
:104000007C1F002058CD00080000020325732025E6
:10401000732C6C696E652025643A204F6274616967
:104020006E20636F6E74726F6C206661696C65647C
:104030003A2073776974636820746F2046206D6F2F
:1040400064650A0025732025732C6C696E65202534
:10405000643A204F627461696E20636F6E74726F90
:104060006C206661696C65643A2073776974636873
:1040700020746F2050206D6F64650A00ECA10090E1
:10408000F74807F027F80646701C58B1B6F5806F60
:1040900008DA41F208510859095909684A6D0021A6
:1040A000904708E041F208510859095909684A6DDA
:1040B000AFF6D8219047EFE040F24140E94BAFF630
:1040C0001832E9A10090E64807F004F80646701C93
:1040D00058B1B6F5806F08DA41F20851085909590C
:1040E00009684A6D0021904708E041F208510859DB
:1040F000095909684A6DAFF61C319047CCE040F28F
:104100004440D84BAFF66032E3A10090D44806F0AB
:10411000E1FF0646701C58B1B6F5806F08DA41F22F
:1041200008510859095909684A6D0021904708E06B
:1041300041F208510859095909684A6DAFF66431CE
:1041400090470020AFF2CF2102224FF4FA73CDE95D
:104150000332CDE90510012007A90022CDE9002195
:104160000290D748007808B1012000E00020024604
:10417000012302212046FEF7BFFF8DE040F24940B7
:10418000B84BAFF6DC32CFA10090B54806F0A2FFE5
:104190000646701C58B1B6F5806F08DA41F2085136
:1041A0000859095909684A6D0021904708E041F211
:1041B00008510859095909684A6DAFF6E03190472E
:1041C00000200790AFF24F3102224FF4FA73CDE98D
:1041D0000332CDE90510012007A90022CDE9002115
:1041E0000290B748007808B1012000E000200246A4
:1041F000012302212046FEF77FFF4DE040F24F40B1
:10420000984BAFF65C42B9A10090954806F062FF6A
:104210000646701C58B1B6F5806F08DA41F20851B5
:104220000859095909684A6D0021904708E041F290
:1042300008510859095909684A6DAFF6604190471D
:104240002AE0BDF82010204601F0D0FE18BB40F255
:104250005440844BAFF65842AFF66431009080482A
:1042600006F038FF0646701C58B1B6F5806F08DAC4
:1042700041F208510859095909684A6D00219047CF
:1042800008E041F208510859095909684A6DAFF62A
:10429000B441904700BF00BF00BF09B0F0BDF0B50A
:1042A00089B007460C4615461E4608940DB12846AF
:1042B00001E0AFF23B4002214FF4FA72CDE905066E
:1042C000CDE90321012008A90022CDE900210290B7
:1042D0007B48007808B1012000E00020024601235D
:1042E00002213846FEF708FF09B0F0BD70B588B06E
:1042F00004460D4616460795002002224FF4FA7335
:10430000CDE9042003930690012007A90022CDE9FE
:10431000002102906A48007808B1012000E00020E6
:104320000246012302212046FEF7E6FE41F2085232
:10433000105912591268D16A884741F20851085938
:10434000095909688A6B3146904741F20852105961
:1043500012591268116B8847B4F8700058B9D4F834
:104360008F067049884203D20620A4F8700002E04C
:104370000520A4F87000B4F8700008B070BD70B5E6
:1043800005460C46302204F2B361284605F012FFC0
:1043900070BD70B504460D463022294604F2B36064
:1043A00005F008FF70BD2DE9FF4104460D46174694
:1043B0004FF6FF7003902868C0F3092010380228D8
:1043C00034D82868C0F30920A0F1100205F10C01CF
:1043D00003A805F0EFFEBDF80C10204601F006FE24
:1043E000002822D140F23F304F4BAFF6EC52AFF6EF
:1043F000F84100901A4806F06DFE0646701C58B150
:10440000B6F5806F08DA41F2085108590959096870
:104410004A6D0021904708E041F2085108590959B6
:1044200009684A6DAFF64C619047AAE07EE0000053
:1044300025732025732C6C696E652025643A205203
:10444000656C656173656420636F6E74726F6C2058
:104450007375636365737366756C6C790A0000002D
:104460007C1F002058CD000825732025732C6C6913
:104470006E652025643A204F627461696E65642020
:10448000636F6E74726F6C207375636365737366AC
:10449000756C6C790A00000025732025732C6C69FB
:1044A0006E652025643A204F627461696E20636FE7
:1044B0006E74726F6C2072756E6E696E670A0000A2
:1044C0000C01002025732025732C6C696E65202556
:1044D000643A2052656C6561736520636F6E747217
:1044E0006F6C2072756E6E696E670A0025732025E9
:1044F000732C6C696E652025643A20494F43206D0A
:104500006F6465206F70656E696E672063616E20F1
:104510006E6F74206F627461696E20636F6E747267
:104520006F6C0A00000002036BCD0008288980B27E
:104530002968C1F304614FF45172FA4BCDE90021AF
:104540000290AFF64472AFF62461F74806F0C2FD60
:104550000646701C58B1B6F5806F08DA41F2085172
:104560000859095909684A6D0021904708E041F24D
:1045700008510859095909684A6DAFF6A07190476A
:1045800000BFBDE8FF812DE9F04387B004460E4629
:1045900015461F46DDF83890642D24DD4FF4DA709F
:1045A000E24BAFF6A472E2A10090DF4806F092FD64
:1045B000804608F1010058B1B8F5806F08DA41F281
:1045C00008510859095909684A6D0021904707E0C8
:1045D00041F208510859095909684A6DDE49904766
:1045E00007B0BDE8F0830FB1384601E0AFF24920D3
:1045F00001214FF4FA72CDE90509CDE90321FE202E
:1046000000231A461946CDE9016500902046FEF7C1
:1046100073FD00BFE4E72DE9FC4104460D46174653
:104620004FF6FF7001902868C0F309201038022867
:1046300009D82868C0F30920A0F1100205F10C0187
:1046400001A805F0B7FDBDF8040010B1012844D160
:1046500021E040F20D40C14BBF4A343AC0A1009066
:10466000B14806F037FD0646701C58B1B6F5806FAC
:1046700008DA41F208510859095909684A6D0021C0
:10468000904707E041F208510859095909684A6DF5
:10469000B14990474BE04FF48260B04BAE4A2432B0
:1046A000BAA10090A04806F015FD0646701C58B14E
:1046B000B6F5806F08DA41F20851085909590968BE
:1046C0004A6D0021904707E041F208510859095905
:1046D00009684A6DA049904729E0BDF804102046BA
:1046E00001F084FC002821D140F215409B4B9A4AEE
:1046F0002432B1A100908C4806F0ECFC0646701CF8
:1047000058B1B6F5806F08DA41F2085108590959D5
:1047100009684A6D0021904707E041F208510859A5
:10472000095909684A6D8C49904700BF00BF00BF16
:10473000BDE8FC812DE9F04188B006460D461746DC
:104740009846002420E0AFF6583106F2836005F069
:1047500063FD60B90C2C07DA285D052801DD052012
:1047600000E0285D28550EE0002028550BE00E2CB7
:1047700007DA285D052801DD052000E0285D2855C1
:1047800001E000202855641C102CDCDB0FB13846FA
:1047900001E0AFF27D1001216422CDE90508CDE9E9
:1047A00003211020CDE9000500231A4602210290C2
:1047B0003046FEF7A1FC08B0BDE8F081F0B587B047
:1047C00006460D461746002420E0AFF6DC3106F21F
:1047D000836005F021FD60B90C2C07DA285D0528FF
:1047E00001DD052000E0285D28550EE00020285559
:1047F0000BE00E2C07DA285D052801DD052000E01E
:10480000285D285501E000202855641C102CDCDBB5
:10481000002001226423CDE9042003930690102098
:10482000CDE9000500231A46022102903046FEF72A
:1048300063FC41F20852905992591268D16A884734
:1048400041F208518859895909688A6B394690475D
:1048500041F20852905992591268116B8847B6F884
:10486000700007B0F0BD1FB50446AFF67C4104F2FE
:10487000836005F0D1FC20BB01208DF800000220F0
:104880008DF8010003208DF8020004208DF803004C
:1048900003208DF8040002208DF8050001208DF81A
:1048A000060002208DF8070003208DF80800042080
:1048B0008DF8090003208DF80A0002208DF80B0006
:1048C00028E001208DF8000002208DF8010003206F
:1048D0008DF8020004208DF8030003208DF80400F9
:1048E00002208DF8050000208DF806008DF80700E5
:1048F00001208DF8080002208DF8090003208DF8B2
:104900000A0004208DF80B0003208DF80C00022013
:104910008DF80D0000231A4669462046FFF70AFF6E
:104920001FBD00006BCD00087C1F002024CD0008B7
:1049300025732025732C6C696E652025643A2054FC
:104940006F6F206D756368206461746120746F20DF
:1049500073656E6400000000DC35000880CD00083F
:1049600025732025732C6C696E652025643A2046DA
:1049700072657175656E63792073657420737563F4
:104980006365737366756C6C790A00002573202566
:10499000732C6C696E652025643A204672657175CA
:1049A000656E637920706172616D657465722065F2
:1049B00072726F720A00000025732025732C6C69D7
:1049C0006E652025643A205768696C652063616CC8
:1049D0006C696E6720746869732066756E637469AC
:1049E0006F6E0A007FB504460D46AFF6FC5104F227
:1049F000836005F011FC20BB01208DF8000002202F
:104A00008DF8010003208DF8020004208DF80300CA
:104A100003208DF8040002208DF8050001208DF898
:104A2000060002208DF8070003208DF808000420FE
:104A30008DF8090003208DF80A0002208DF80B0084
:104A400028E001208DF8000002208DF801000320ED
:104A50008DF8020004208DF8030003208DF8040077
:104A600002208DF8050000208DF806008DF8070063
:104A700001208DF8080002208DF8090003208DF830
:104A80000A0004208DF80B0003208DF80C00022092
:104A90008DF80D002A4669462046FFF78FFE04B0C8
:104AA00070BD1FB5044600208DF800008DF8010090
:104AB0008DF802008DF803008DF804008DF80500D4
:104AC0008DF806008DF807008DF808008DF80900B4
:104AD0008DF80A008DF80B008DF80C008DF80D0094
:104AE00000231A4669462046FFF724FE1FBD2DE924
:104AF000F04104460D46174605F10C0631462046A6
:104B0000FEF74AFE30B90021C4F86F16C4F88F16BC
:104B100084F89316BDE8F0812DE9F04188B0044691
:104B20000D4616464FF6FF70A4F86D060021C4F836
:104B30006F1684F8931664274FF00308002007903F
:104B40000DB1284601E0AFF25900CDE90378CDE977
:104B50000506012007A900221346CDE90021029095
:104B600002212046FEF7C8FA08B0BDE8F0810146F0
:104B700001F283607047014601F27360704730B5FF
:104B8000E7B004460D46294601A800F0A1F9CC2261
:104B900001A934A805F00EFBDDF8D2002060DDF895
:104BA000D60060609DF8DA00207267B030BD10B5A5
:104BB000E6B004462146684600F08AF9CC226946F0
:104BC00033A805F0F7FA9DF8900166B010BD0146D4
:104BD00041F20850405870470146B1F870007047E4
:104BE00007B500F5B061DDE90123C1E90F230EBD72
:104BF0002DE9F04104460E46154698462868C0F354
:104C00000920103804286ED8AF7B182F6CD00FDC29
:104C1000A7F10200142835D2DFE800F0253545550C
:104C200067778C9CACBC34CC343434343434DCE022
:104C3000402F76D00EDC3D2F74D006DC192F72D0B9
:104C40001A2F71D01B2F1DD1D8E03E2F6DD03F2FD2
:104C5000F9D1DFE0A7F141000528DCD2DFE800F060
:104C6000E2E6EAF0F400D4F8FC0540B14FF4C0608D
:104C7000025929463046D4F8FC35984702E0012015
:104C800084F85406E4E0D4F8040640B14FF4C1605F
:104C9000025929463046D4F80436984702E00120EC
:104CA00084F85506D4E0D4F80C0640B14FF4C26045
:104CB000025929463046D4F80C36984702E00120C4
:104CC00084F85606C4E0D4F8140640B14FF4C3602B
:104CD000025929463046D4F81436984702E001209C
:104CE00084F85706B4E0B4E07CE0D4F81C0640B188
:104CF0004FF4C460025929463046D4F81C36984710
:104D000002E0012084F85806A2E0D4F8240668B135
:104D10004FF4C560025929463046D4F824369847E6
:104D200007E07BE06EE061E064E06FE0012084F882
:104D300059068DE0D4F82C0640B14FF4C6600259F4
:104D400029463046D4F82C36984702E0012084F8F2
:104D50005A067DE0D4F8340640B14FF4C7600259DA
:104D600029463046D4F83436984702E0012084F8CA
:104D70005B066DE0D4F83C0640B14FF4C8600259C0
:104D800029463046D4F83C36984702E0012084F8A2
:104D90005C065DE0D4F8440640B14FF4C9600259A6
:104DA00029463046D4F84436984702E0012084F87A
:104DB0005D064DE0D4F84C0640B14FF4CA6002598C
:104DC00029463046D4F84C36984702E0012084F852
:104DD0005E063DE0012084F8670639E0012084F892
:104DE000680635E0012084F8690631E0012084F886
:104DF0006A062DE0012084F86B0629E0012084F882
:104E00006C0625E0012084F85F0621E0012084F88B
:104E100060061DE0012084F8610619E0012084F895
:104E2000620615E0012084F8630611E0012084F891
:104E300064060DE0012084F8650609E004E0FFE760
:104E4000012084F8660603E0012084F8690600BFAB
:104E500000BFBDE8F08170B505460C464FF4856291
:104E600004F2E661284605F0A5F970BD014641F25D
:104E70000D50405C7047014641F20E50405C704757
:104E8000014641F20F50405C704741F20D521154FF
:104E9000704741F20E521154704741F20F521154B3
:104EA000704741F20852115070470000014601F16D
:104EB0000C0210787047024602F10C01491C087878
:104EC000704780F8B0117047014691F8B001704703
:104ED00030B5B3B005460C4641F20852105912598C
:104EE0001268516A8847CC2204F1E001684605F057
:104EF00061F941F20852105912591268916A8847B3
:104F0000C9226946284605F055F933B030BD10B5C1
:104F1000E8B00446214601A8FFF7DAFFCC2201A938
:104F200034A805F047F9BDF896016790BDF89C11CB
:104F3000084668B010BD10B5E6B004462146684684
:104F4000FFF7C6FFCC22694633A805F033F99DF878
:104F5000910166B010BDC0F8C4154FF4B9631A5082
:104F60007047C0F8BC154FF4B8631A5070472DE96C
:104F7000FF4104460F4607F10C0641F20852105952
:104F800012591268516A8847B61C35462888A4F819
:104F9000E000022003900120029094F8DC1084F8D5
:104FA000A811D4F88F06F74988420BD903A8092124
:104FB000CDE900102888334604F1E20202A906F088
:104FC00036F80AE003A80421CDE90010288833460A
:104FD00004F1E20202A906F02AF803A81021CDE9A3
:104FE00000102888334604F1EB0202A906F01FF8EE
:104FF00003A80C21CDE900102888334604F1FB02F8
:1050000002A906F014F803A80D21CDE900102888A4
:10501000334604F2071202A906F009F803A80C218E
:10502000CDE900102888334604F58A7202A905F0FC
:10503000FEFF03A81921CDE900102888334604F5A6
:10504000907202A905F0F3FFCFA104F2836005F08E
:10505000E3F8B0B103A82021CDE900102888334639
:1050600004F23F1202A905F0E2FF03A82C21CDE9CA
:1050700000102888334604F25F1202A905F0D7FF1A
:1050800000BF03A80621CDE900102888334604F2AA
:10509000391202A905F0CBFF03A80C21CDE90010BD
:1050A0002888334604F28B1202A905F0C0FF03A939
:1050B000D4F88F06B34A904201D2012000E00020CC
:1050C000C0F10D00CDE900012888334604F29712A3
:1050D00002A905F0ACFF03A80121CDE90010288842
:1050E000334604F5D27202A905F0A1FF03A80121FD
:1050F000CDE900102888334604F2A51202A905F074
:1051000096FF03A9D4F88F069E4A904201D201204F
:1051100000E00020C0F10200CDE9000128883346FC
:1051200004F5D37202A905F082FF41F2085210592A
:1051300012591268916A884701212046FFF7C1FE83
:10514000D4F8C40538B14FF4B96002593946204645
:10515000D4F8C4359847BDE8FF81F0B59FB0044648
:105160000D46642106A805F04CF8AE7B2846FFF7F3
:105170009DFE02287ED12846FFF79DFE05287AD2A3
:10518000DFE800F0033A0885F30029462046FFF7E0
:10519000EEFE28E294207E4B7EA280A100908A48F9
:1051A00005F098FF0746781C58B1B7F5806F08DA0C
:1051B00041F208510859095909684A6D0021904780
:1051C00007E041F208510859095909684A6D7FA161
:1051D0009047D4F8BC0540B14FF4B8600259294655
:1051E0002046D4F8BC35984705E000232A462146DE
:1051F0002046FFF7FDFCF6E19F20654B65A27BA1F1
:105200000090714805F066FF0746781C58B1B7F565
:10521000806F08DA41F208510859095909684A6D46
:105220000021904707E041F20851085909590968DF
:105230004A6D66A190472868C0F30460002825DD08
:1052400000208DF819008DF818002868C0F304605C
:10525000BDF80C1060F30701ADF80C10288980B27E
:10526000ADF80E002879C0F34210BDF80C1060F3C1
:105270000F2101E0B8E194E1ADF80C1006A805900B
:105280000220049003A9204603F038FFABE1D4F8D4
:10529000EC0540B14FF4BE60025929462046D4F8CF
:1052A000EC3598474DE1052E6AD2DFE806F003049D
:1052B00036D1F90044E141F20E50005D00282BD0B8
:1052C000D4F8D40540B14FF4BB60025929462046BA
:1052D000D4F8D43598471FE0BD202D4B2DA24DA109
:1052E0000090394805F0F6FE0746781C58B1B7F52E
:1052F000806F08DA41F208510859095909684A6D66
:105300000021904707E041F20851085909590968FE
:105310004A6D2EA1904700BF12E141F20D50005D91
:1053200000282CD0D4F8CC0540B14FF4BA60025913
:1053300029462046D4F8CC35984720E0C720144BA6
:1053400014A23CA10090204805F0C4FE0746781C3A
:1053500060B1B7F5806F09DA41F20851085909596F
:1053600009684A6D0021904708E0EBE041F20851DE
:105370000859095909684A6D14A1904700BFDFE038
:10538000BCE00000000001034D313030000000009F
:1053900095CD0008535441545553000025732025E2
:1053A000732C6C696E652025643A205265636569CB
:1053B000766520646174612066726F6D206D6F6226
:1053C000696C650A000000007C1F00204552524FA6
:1053D000523A206C6F67207072696E746572206932
:1053E0006E6E6572206661756C740A0025732025E7
:1053F000732C6C696E652025643A206F6E626F6154
:10540000726453444B206C6F737420636F6E7472BC
:105410006F6C0A0025732025732C6C696E6520253E
:10542000643A204D6F646520776179706F696E749E
:10543000200A000025732025732C6C696E652025D9
:10544000643A204D6F6465204850200A0000000037
:1054500041F20F50005D70B3D4F8E40540B14FF451
:10546000BD60025929462046D4F8E435984722E029
:10547000D120644BAFF2E40263A100906A4805F0CA
:1054800029FE0746781C60B1B7F5806F09DA41F252
:1054900008510859095909684A6D0021904709E0E7
:1054A0000AE041F208510859095909684A6DAFF2FA
:1054B000E401904700BF43E0D620524BAFF22C12DC
:1054C0005AA10090584805F005FE0746781C58B1CF
:1054D000B7F5806F08DA41F208510859095909688F
:1054E0004A6D0021904708E041F2085108590959D6
:1054F00009684A6DAFF22C11904721E0D920414B49
:1055000051A253A1CDE90006474805F0E3FD074647
:10551000781C58B1B7F5806F08DA41F20851085984
:10552000095909684A6D0021904708E041F2085185
:105530000859095909684A6DAFF27011904700BFC8
:1055400000BF50E0D4F8DC0540B14FF4BC60025914
:1055500029462046D4F8DC35984721E0E420294B41
:10556000AFF2D01245A100902F4805F0B3FD0746D9
:10557000781C58B1B7F5806F08DA41F20851085924
:10558000095909684A6D0021904708E041F2085125
:105590000859095909684A6DAFF2D011904700BF08
:1055A00021E0E720174BAFF214223CA100901E48E7
:1055B00005F090FD0746781C58B1B7F5806F08DA02
:1055C00041F208510859095909684A6D002190476C
:1055D00008E041F208510859095909684A6DAFF2CB
:1055E0001421904700BF00BFD4F8F40538B14FF440
:1055F000BF60025929462046D4F8F43598471FB0B9
:10560000F0BD000095CD000825732025732C6C6932
:105610006E652025643A204D6F646520466F6C6C82
:105620006F77200A000000007C1F002025732025D2
:10563000732C6C696E652025643A204D6F6465207B
:10564000494F43200A0000004552524F52000000CB
:1056500025732025732C6C696E652025643A2055CE
:105660006E6B6E6F776E206D697373696F6E2063FA
:105670006F64652030782558200A000025732025A6
:10568000732C6C696E652025643A20574159504F40
:10569000494E542044415441000000002573202508
:1056A000732C6C696E652025643A20556E6B6E6FA5
:1056B000776E2042524F41444341535420636F6DF3
:1056C0006D616E6420636F64650A0000014601F03D
:1056D000800018B11B2080EA410000E04800C0B201
:1056E0007047102103E0425CFA4B9A5C42540A1E58
:1056F000A1F10103D9B2F6D17047102103E0425C59
:10570000F54B9A5C42540A1EA1F10103D9B2F6D1BD
:10571000704710B50246102003E0135C0C5C634038
:105720001354031EA0F10104E0B2F6D110BD30B550
:105730000346102008E00C5C14541D5C6C401C54A3
:1057400000F110040D5D1555041EA0F10105E8B22D
:10575000F1D130BD427843794370437A4371437B42
:1057600043724273827A837883728270C178C37B7A
:10577000C370C37AC373C379C372C171817B8379E8
:105780008373817170474278437B4370437A4373DC
:105790004379437242718278837A83708272C178CE
:1057A000C379C370C37AC371C37BC372C173817978
:1057B000837B8371817370472DE9F041034600229A
:1057C00034E09D5C501C1E5C901C1F5CD01C13F8C8
:1057D000008085EA0600784080EA080485EA060031
:1057E000FFF774FF6040995C4840985486EA0700D0
:1057F000FFF76CFF6040511C595C4840511C5854E5
:1058000087EA0800FFF762FF6040911C595C48403E
:10581000911C585488EA0500FFF758FF6040D11CDE
:10582000595C4840D11C5854101DC2B2102AC8DB24
:10583000BDE8F0812DE9F84F0346002251E09C5C61
:10584000501C1D5C901C1E5CD01C1F5C84EA050073
:10585000704080EA07084046FFF738FF83468BEA2E
:10586000040181EA0600FFF731FF0090FFF72EFFE9
:1058700080EA08098BEA050181EA0700FFF726FFA5
:105880000090FFF723FF80EA080A84EA0500FFF78B
:105890001DFF80EA0900995C4840985485EA06009B
:1058A000FFF714FF80EA0A00511C595C4840511C64
:1058B000585486EA0700FFF709FF80EA0900911CA7
:1058C000595C4840911C585487EA0400FFF7FEFEDB
:1058D00080EA0A00D11C595C4840D11C5854101D64
:1058E000C2B2102AABDBBDE8F88F30B50A46437F61
:1058F000784CE35C14786340047863400370437829
:10590000847F744D2C5D634043708378C47F2C5D2D
:1059100063408370C378047F2C5D6340C370137849
:10592000DB0903EBC30303EB4303147883EA44036B
:10593000137004211BE0435C0C1F045D634043545F
:105940004B1CC35CCC1E045D63404C1C03558B1C7C
:10595000C35C8C1E045D63408C1C0355CB1CC35C74
:105960004C1E045D6340CC1C03550B1DD9B210299D
:10597000E1DB037C047B574D2C5D63400374437C67
:10598000447B2C5D63404374837C847B2C5D63404B
:105990008374C37CC47B2C5D6340C37414211BE0FF
:1059A000435C0C1F045D634043544B1CC35CCC1E22
:1059B000045D63404C1C03558B1CC35C8C1E045D52
:1059C00063408C1C0355CB1CC35C4C1E045D6340C0
:1059D000CC1C03550B1DD9B22029E1DB30BD30B5FD
:1059E0000A461C211BE0435C0C1F045D63404354CA
:1059F0004B1CC35CCC1E045D63404C1C03558B1CCC
:105A0000C35C8C1E045D63408C1C0355CB1CC35CC3
:105A10004C1E045D6340CC1C03550B1FD9B21029EA
:105A2000E1DC037C047B2B4D2C5D63400374437CE1
:105A3000447B2C5D63404374837C847B2C5D63409A
:105A40008374C37CC47B2C5D6340C3740C211BE056
:105A5000435C0C1F045D634043544B1CC35CCC1E71
:105A6000045D63404C1C03558B1CC35C8C1E045DA1
:105A700063408C1C0355CB1CC35C4C1E045D63400F
:105A8000CC1C03550B1FD9B20029E1DC137803F0BD
:105A900001030BB18D2300E00023147883EA640333
:105AA0001370437F0B4CE35C1478634004786340CD
:105AB00003704378847F074D2C5D63404370837887
:105AC000C47F2C5D63408370C378047F2C5D63408A
:105AD000C37030BDABCD0008ABCE000878B505462D
